:100000000C9434000C943E000C943E000C943E0082
:100010000C943E000C943E000C943E000C943E0068
:100020000C943E000C943E000C943E000C943E0058
:100030000C943E000C943E000C943E000C943E0048
:100040000C943E000C943E000C943E000C943E0038
:100050000C943E000C943E000C943E000C943E0028
:100060000C943E000C943E0011241FBECFEFD8E04C
:10007000DEBFCDBF0E9440000C9429020C9400000A
:1000800015D06ED066D108D1B5D1C9D0B3D1C0E0FA
:10009000B2E050D1C3D1D7D0C0E0B0EC4BD1BED18B
:1000A000E5D0A8D10AD080D063D0FBCF5FEF5AB99A
:1000B00051E054B950E05BB908951D9907D01C99DF
:1000C00011D01B9917D01A991BD00895CBB0C6FC3C
:1000D000289AC3FC5D9AC0FC5A9A8CD12898F0E00B
:1000E000FBB90895CBB012D085D133D0F0E4CF2640
:1000F000CBB80895CBB013D0F8E0CF26CBB8089595
:10010000CBB01AD0F1E0CF26CBB80895C6FE05D00B
:10011000C6FC01D00895289A08955F9A0895C3FEF9
:1001200007D0C3FC01D008955D9A64D15D9808950D
:100130005C9A60D15C980895C0FE07D0C0FC01D0E5
:1001400008955A9A57D15A980895599A53D159985F
:100150000895289859985A985C985D985F980895E2
:10016000389A40EC40937C0047E840937A00089529
:1001700047EC40937A0050917A0054FFFCCF17ED82
:1001800010937A00F0907800D0907900CF2CAAD00C
:1001900001D00895FF2D3A9AF03118F4EF7F42987C
:1001A00002C0E060429A0895219A29982DD1299A97
:1001B00021981999FECF199BFECF1999FECF0CD02B
:1001C0000BD00AD0D22F08D07ED001D00895F22FC4
:1001D000F83208F40895089518E02227199BFECFFD
:1001E0002AD1199B03C00894221F01C0220F19991C
:1001F000FECF1A9599F70895032FDFD0D9D0009339
:10020000C600032FE2D0D4D00093C6000AE0D0D0BD
:100210000093C6000DE0CCD00093C6000895C1E065
:10022000B3E588D0C1E0B4E585D0C1E0B1E482D0C7
:10023000C1E0B2E57FD0C1E0B4E57CD0DBD0C0E066
:10024000B1E078D00895C1E0B4E574D0C1E0B5E480
:1002500071D0C1E0BDE46ED0C1E0B0E56BD0C1E0CB
:10026000BAE368D0C1E0B0E265D00895C1E0BCE473
:1002700061D0C1E0B9E45ED0C1E0B7E45BD0C1E0D9
:10028000B8E458D0C1E0B4E555D0C1E0BAE352D0EB
:10029000C1E0B0E24FD00895C0E0B3E34BD0BED090
:1002A000C0E0B2E347D0BAD0C0E0B8E243D0B6D0A5
:1002B000C0E0BCE03FD0C0E0B1E03CD0AFD0C0E097
:1002C000B6E038D00895C0E0B7E834D0ED2E0E2D5A
:1002D00074D0C1E0B02F2ED00E2D77D0C1E0B02F5A
:1002E00029D00895C0E0B7EC25D040E3D40EC1E09A
:1002F000BD2D20D0EC2C0E2D60D0C1E0B02F1AD037
:100300000E2D63D0C1E0B02F15D008952CD08EE40F
:1003100032D0892F30D039D008959A2FF7DF3A2F75
:100320003460932FF3DF7FD03A2F3B7F932FEEDFA4
:1003300075D008952B2FB07FBC2BAB2FEEDFB22FE3
:10034000BB0FBB0FBB0FBB0FB07FBC2BAB2FE5DFD1
:10035000089550E05093B90058E45093B80054E029
:100360005093BC00089554EA5093BC005091BC00D7
:1003700057FFFCCF08958093BB0054E85093BC0016
:100380005091BC0057FFFCCF089554E95093BC0036
:10039000089588278093C0008093C50083E38093ED
:1003A000C40088E18093C10086E08093C200089574
:1003B000B091C000B5FFFCCF0895702F007F02956B
:1003C000005DC02FCA5342F40895072F0F70005DDF
:1003D000C02FCA531AF40895095FF6CF095FFBCF07
:1003E0004FEF5FEF66EF6A95F1F75A95D9F74A95A7
:1003F000C1F708954FEF5FEF60E56A95F1F75A9501
:10040000D9F74A95C1F708955FEF62ED72E07A95EA
:10041000F1F76A95D9F75A95C1F7089558E206D0D1
:100420005A95E9F708950000000008954AE5FBDFBA
:100430004A95E9F70895442746BD44E647BD4AE09A
:1004400045BD45B341FFFDCF442745BD42E045BB17
:060450000895F894FFCFAF
:00000001FF
